:1000000071EF03F00000000000EF00F000000000BE
:0A0010000000000000000000F3D71C
:06001C00000000001200CC
:100022000F0E0C6E470E0D6E0D2EFED70C2EFCD74A
:06003200000000001200B6
:0A003800210E0D6E0D2EFED71200F2
:080042000AAE029E000E12003E
:10004A003EBE02D0839E01D0838E3EBC02D0839CEA
:10005A0001D0838C3EBA02D0839A01D0838A3EB8FB
:10006A0002D0839801D0838827B002D0848401D03B
:10007A0084948482CEDF84923EB602D0839E01D0DD
:10008A00838E3EB402D0839C01D0838C3EB202D0D0
:10009A00839A01D0838A3EB002D0839801D08388A4
:1000AA0027B002D0848401D084948482B2DF8492FF
:0C00BA0027A002D0B1DF01D0BADF120095
:0E00C600026A016A006A086A036A000E1200EC
:1000D4000B840BAE75EF00F0010E036E026A016A29
:0A00E400006A0A360232FF0E120015
:0C00EE000E0E0D6E0D2EFED7000012004D
:1000FA00086A096A100E0C6E013408360936045073
:10010A00085E0550D8A0053C095ED8B007D0045057
:10011A0008260550D8B0053C0926D8900036013685
:06012A000C2EEAD71200C2
:100130000C6A0E6A0250D8A4B1EF00F001C002F0C0
:1001400000C001F0006A0E860250D8A4B1EF00F0A2
:1001500001C002F0016A0E960E880250D8B4C3EFB7
:1001600000F00E50035ED8A4D8A0C8EF00F0D890DD
:1001700002BECDEF00F0003601360236032EB8EF96
:1001800000F0C8EF00F0010E0C6E9DDFD0EF00F024
:10019000020E0C6E9FDFD0EF00F0040E0C6E51DFEC
:0201A00012004B
:0C01A20027903DC03EF050DF2780120087
:1001AE000B820BAEE1EF00F0036802680168006895
:0801BE000A360232FF0E1200A6
:1001C6000B800BAEEFEF00F0026A0AAEFF0E026E76
:0C01D600016E006E0A360232FF0E1200AD
:1001E2000B6A0A6A096A00500402F4CF09F0F3CFDD
:1001F20008F001500502F4CF0BF0F3CF0AF00050E3
:100202000502F3500926F4500A22E86A0B22015033
:100212000402F3500926F4500A22E86A0B2208C0AD
:1002220000F009C001F00AC002F00BC003F0120096
:08023200BE6ABD98BD9A1200DE
:10023A000900F5CFE6FF0006FBE10106F9E112002D
:10024A000FD0800E366E19D0C00E366E16D0940EB0
:10025A00366E13D0D40E366E10D0800E366E0DD098
:10026A003650010AEEE03650020AEEE03650030A32
:10027A00EEE03650040AEEE0F0D73704006E36504E
:10028A00002600C036F000C03EF0DADE27903A6A57
:10029A003A503824E96E000E3920EA6EEE520BE02D
:1002AA003A503824E96E000E3920EA6EEECF3DF05E
:0A02BA0073DF3A2AEDD72780120007
:1002C400969296949598959A959C959E84928494EA
:1002D400839E839C839A8398A2DEA1DEA0DE838A18
:1002E4008388848299DE84929ADE848295DE849265
:1002F40096DE848291DE849292DE839884828CDE00
:1003040084928DDE848288DE8492839A838E8482B2
:1003140083DE849284DE839E838884827DDE84925D
:100324008398848279DE84927ADE848275DE849274
:100334008388848271DE849272DE839884826CDE88
:100344008492838E838C838A8388848265DE8492FC
:0603540066DE27801200A6
:10035A003A6A050E3A5C0AE23A503824E16E000E17
:10036A003920E26E200EE66E3A2AF3D73A50382444
:10037A00E16E000E3920E26EE66A3A063A503824F7
:10038A003B6E000E39203C6E0A0E046E000E056E9E
:10039A0036C000F037C001F0ABDE08C000F009C07B
:1003AA0001F0300E00263BC0E1FF3CC0E2FF00C076
:1003BA00E6FF0A0E046E000E056E36C000F037C066
:1003CA0001F096DE00C036F001C037F0000E0118C9
:1003DA0002E1000E001801E102D03A06CFD712005E
:1003EA000B6A0C6A0A6A0350D8B43FEF02F0028E15
:1003FA008E0E035E03BE07EF02F0D8B407EF02F0D9
:10040A0043EF02F0036C080E035CD8A01EEF02F063
:10041A00036E013602C001F0026A080E035CD8A01E
:10042A001EEF02F00136016A0350D8A4D89028EFD3
:10043A0002F00350D8B428EF02F0D8900232013209
:10044A00032E22EF02F00BBC01A035EF02F0D8A078
:10045A0035EF02F0012AD8B4022A02BE52EF02F0A6
:10046A000AAE57EF02F0021E011E012AD8B4022A70
:10047A0057EF02F0026A016A57EF02F00B800BAEE7
:10048A005BEF02F0026A0AAE5BEF02F0FF0E026E49
:10049A00016E0A3602325BEF02F0010E0C6E8EDE3E
:1004AA005DEF02F0000E0C6E5DEF02F0FF0E0C6EB7
:0A04BA000150006E0250016E1200A6
:1004C400386A38503624E96E000E3720EA6EEE5250
:1004D4000BE038503624E96E000E3720EA6EEECF7A
:0A04E4003DF05DDE382AEDD712006E
:1004EE00086A096A000E07620364FCEF02F002500C
:1004FE0006180A6E075003267E0ED8A08DEF02F066
:10050E00035ED8B000EF03F091EF02F0035ED8A0C7
:10051E0004EF03F0028E068E02C00EF001C00BF047
:10052E0000C00DF000500402F4CF0CF00150050293
:10053E00F4CF00F0F3CF08F00402F3500C26F45081
:10054E000822000E00220D500502F3500C26F45026
:10055E000822000E002202500402F3500826F45026
:10056E00002202500502016A000E0122F3500026FD
:10057E00F45001220D500602F3500826F4500022CA
:10058E00026A000E012202220B500602F3500026D0
:10059E00F4500122000E02220E500602F3500126E4
:1005AE00F450022202BEE4EF02F0083600360136A5
:1005BE0002360306D8B404EF03F0F7EF02F0D8804A
:1005CE00800E08640030000E002201220222D8A004
:1005DE00F7EF02F0023201320032034A00EF03F06D
:1005EE000AAE029E000E06EF03F0010E65DD06EF69
:1005FE0003F0020ED5DD06EF03F0040E64DD1200EB
:0A060E009494CA840C0EBD12120071
:10061800CB50010F006E016A000E012236C004F0B3
:10062800000E056EDADD060E026E00C004F001C091
:1006380005F0025005E005320432059EFF0FFAD797
:10064800040E016E04C000F0015004E00036009072
:10065800FF0FFBD7300E0014036E04C000F005C076
:1006680001F001320032019E01320032019E00C0C9
:0C067800BEFF0F0EBD160350BD12120095
:100684000050086E0150006E016A026A036A0B6A28
:100694000C6A960E036E0A6A00C001F008C000F0EE
:0806A400086A026A43DD12003E
:1006AC00C26A070EC012C08E36C000F00036009031
:1006BC00003600900050C212C28013DDC282C2A26A
:1006CC0001D0FDD7C4CF01F0006AC3500012000E58
:0606DC000112C2901200A1
:1006E2000BEC04F0346A356A936A956A94809494A8
:1006F200966A816AF28EF28CD08EF294F184F28A3A
:10070200840ED56E7B0ED66EE10ED76EF294830EFA
:10071200CD6ECE6ACF6A9E90010EC26E0E0EC16E73
:10072200BE0EC06ECEDD010E3E6E8EDC0C0E3E6E37
:100732008BDC010E366E010E376E1A0E386E000E0D
:10074200396E82DDCA80CA92630ECB6E71DDFF0EF6
:10075200366E61DF5BDF366AA8DF00C034F001C0AD
:1007620035F08FDF8F0E046EC20E056E750E066EAB
:100772007C0E076EBBDE38DE00C034F001C035F0FF
:1007820000C036F048DF34C000F035C001F079DF38
:10079200850E046EEB0E056E510E066E7D0E076E13
:1007A200A5DE22DE00C034F001C035F000C036F014
:1007B20001C037F0280E386E000E396ECDDD010E05
:1007C200366E0B0E376E280E386E000E396E3CDD1B
:1007D20032C036F033C037F0280E386E000E396E54
:1007E200BBDD020E366E010E376E280E386E000E1D
:1007F200396E2ADD150E366E000E376E62DEABD70D
:02080200FFD71E
:1008160010EE15F0120E006E010E016E040EF66E4D
:0E082600080EF76E000EF86E1DEC01F01200C9
:050804002052504D00E0
:0D08090044757479204379636C653A2000D2
:020000040030CA
:0D000100021F1EFF8381FF0FC00FE00F40A4
:00000001FF
